{
  "_format": "hh-sol-artifact-1",
  "contractName": "AttributionSplitter",
  "sourceName": "contracts/AttributionSplitter.sol",
  "abi": [
    {
      "inputs": [
        {
          "internalType": "address[]",
          "name": "payees",
          "type": "address[]"
        },
        {
          "internalType": "uint256[]",
          "name": "shares",
          "type": "uint256[]"
        }
      ],
      "stateMutability": "payable",
      "type": "constructor"
    },
    {
      "anonymous": false,
      "inputs": [
        {
          "indexed": false,
          "internalType": "address",
          "name": "account",
          "type": "address"
        },
        {
          "indexed": false,
          "internalType": "uint256",
          "name": "shares",
          "type": "uint256"
        }
      ],
      "name": "PayeeAdded",
      "type": "event"
    },
    {
      "anonymous": false,
      "inputs": [
        {
          "indexed": false,
          "internalType": "address",
          "name": "from",
          "type": "address"
        },
        {
          "indexed": false,
          "internalType": "uint256",
          "name": "amount",
          "type": "uint256"
        }
      ],
      "name": "PaymentReceived",
      "type": "event"
    },
    {
      "anonymous": false,
      "inputs": [
        {
          "indexed": false,
          "internalType": "address",
          "name": "to",
          "type": "address"
        },
        {
          "indexed": false,
          "internalType": "uint256",
          "name": "amount",
          "type": "uint256"
        }
      ],
      "name": "PaymentReleased",
      "type": "event"
    },
    {
      "inputs": [],
      "name": "addr",
      "outputs": [
        {
          "internalType": "address",
          "name": "",
          "type": "address"
        }
      ],
      "stateMutability": "view",
      "type": "function"
    },
    {
      "inputs": [],
      "name": "attr",
      "outputs": [
        {
          "internalType": "string",
          "name": "",
          "type": "string"
        }
      ],
      "stateMutability": "view",
      "type": "function"
    },
    {
      "inputs": [
        {
          "internalType": "uint256",
          "name": "index",
          "type": "uint256"
        }
      ],
      "name": "payee",
      "outputs": [
        {
          "internalType": "address",
          "name": "",
          "type": "address"
        }
      ],
      "stateMutability": "view",
      "type": "function"
    },
    {
      "inputs": [
        {
          "internalType": "address payable",
          "name": "account",
          "type": "address"
        }
      ],
      "name": "release",
      "outputs": [],
      "stateMutability": "nonpayable",
      "type": "function"
    },
    {
      "inputs": [
        {
          "internalType": "address",
          "name": "account",
          "type": "address"
        }
      ],
      "name": "released",
      "outputs": [
        {
          "internalType": "uint256",
          "name": "",
          "type": "uint256"
        }
      ],
      "stateMutability": "view",
      "type": "function"
    },
    {
      "inputs": [
        {
          "internalType": "string",
          "name": "x",
          "type": "string"
        }
      ],
      "name": "set",
      "outputs": [],
      "stateMutability": "nonpayable",
      "type": "function"
    },
    {
      "inputs": [
        {
          "internalType": "address",
          "name": "account",
          "type": "address"
        }
      ],
      "name": "shares",
      "outputs": [
        {
          "internalType": "uint256",
          "name": "",
          "type": "uint256"
        }
      ],
      "stateMutability": "view",
      "type": "function"
    },
    {
      "inputs": [],
      "name": "totalReleased",
      "outputs": [
        {
          "internalType": "uint256",
          "name": "",
          "type": "uint256"
        }
      ],
      "stateMutability": "view",
      "type": "function"
    },
    {
      "inputs": [],
      "name": "totalShares",
      "outputs": [
        {
          "internalType": "uint256",
          "name": "",
          "type": "uint256"
        }
      ],
      "stateMutability": "view",
      "type": "function"
    },
    {
      "stateMutability": "payable",
      "type": "receive"
    }
  ],
  "bytecode": "0x608060405230600560006101000a81548173ffffffffffffffffffffffffffffffffffffffff021916908373ffffffffffffffffffffffffffffffffffffffff1602179055506040518060400160405280600281526020017f6f6f00000000000000000000000000000000000000000000000000000000000081525060069080519060200190620000929291906200067f565b50604051620015d8380380620015d883398181016040526040811015620000b857600080fd5b8101908080516040519392919084640100000000821115620000d957600080fd5b83820191506020820185811115620000f057600080fd5b82518660208202830111640100000000821117156200010e57600080fd5b8083526020830192505050908051906020019060200280838360005b83811015620001475780820151818401526020810190506200012a565b50505050905001604052602001805160405193929190846401000000008211156200017157600080fd5b838201915060208201858111156200018857600080fd5b8251866020820283011164010000000082111715620001a657600080fd5b8083526020830192505050908051906020019060200280838360005b83811015620001df578082015181840152602081019050620001c2565b50505050905001604052505050818180518251146200024a576040517f08c379a00000000000000000000000000000000000000000000000000000000081526004018080602001828103825260328152602001806200157b6032913960400191505060405180910390fd5b6000825111620002c2576040517f08c379a000000000000000000000000000000000000000000000000000000000815260040180806020018281038252601a8152602001807f5061796d656e7453706c69747465723a206e6f2070617965657300000000000081525060200191505060405180910390fd5b60008090505b82518110156200031a576200030c838281518110620002e357fe5b6020026020010151838381518110620002f857fe5b60200260200101516200032560201b60201c565b8080600101915050620002c8565b50505050506200072e565b600073ffffffffffffffffffffffffffffffffffffffff168273ffffffffffffffffffffffffffffffffffffffff161415620003ad576040517f08c379a000000000000000000000000000000000000000000000000000000000815260040180806020018281038252602c8152602001806200154f602c913960400191505060405180910390fd5b6000811162000424576040517f08c379a000000000000000000000000000000000000000000000000000000000815260040180806020018281038252601d8152602001807f5061796d656e7453706c69747465723a2073686172657320617265203000000081525060200191505060405180910390fd5b6000600260008473ffffffffffffffffffffffffffffffffffffffff1673ffffffffffffffffffffffffffffffffffffffff1681526020019081526020016000205414620004be576040517f08c379a000000000000000000000000000000000000000000000000000000000815260040180806020018281038252602b815260200180620015ad602b913960400191505060405180910390fd5b6004829080600181540180825580915050600190039060005260206000200160009091909190916101000a81548173ffffffffffffffffffffffffffffffffffffffff021916908373ffffffffffffffffffffffffffffffffffffffff16021790555080600260008473ffffffffffffffffffffffffffffffffffffffff1673ffffffffffffffffffffffffffffffffffffffff168152602001908152602001600020819055506200058181600054620005f660201b6200099c1790919060201c565b6000819055507f40c340f65e17194d14ddddb073d3c9f888e3cb52b5aae0c6c7706b4fbc905fac8282604051808373ffffffffffffffffffffffffffffffffffffffff1673ffffffffffffffffffffffffffffffffffffffff1681526020018281526020019250505060405180910390a15050565b60008082840190508381101562000675576040517f08c379a000000000000000000000000000000000000000000000000000000000815260040180806020018281038252601b8152602001807f536166654d6174683a206164646974696f6e206f766572666c6f77000000000081525060200191505060405180910390fd5b8091505092915050565b828054600181600116156101000203166002900490600052602060002090601f016020900481019282601f10620006c257805160ff1916838001178555620006f3565b82800160010185558215620006f3579182015b82811115620006f2578251825591602001919060010190620006d5565b5b50905062000702919062000706565b5090565b6200072b91905b80821115620007275760008160009055506001016200070d565b5090565b90565b610e11806200073e6000396000f3fe60806040526004361061008a5760003560e01c8063767800de11610059578063767800de146102dc5780638b83209b146103335780639852595c146103ae578063ce7c2ac214610413578063e33b7de31461047857610103565b806319165587146101085780632f03e688146101595780633a98ef39146101e95780634ed3885e1461021457610103565b36610103577f6ef95f06320e7a25a04a175ca677b7052bdd97131872c2192525a629f51be7706100b86104a3565b34604051808373ffffffffffffffffffffffffffffffffffffffff1673ffffffffffffffffffffffffffffffffffffffff1681526020018281526020019250505060405180910390a1005b600080fd5b34801561011457600080fd5b506101576004803603602081101561012b57600080fd5b81019080803573ffffffffffffffffffffffffffffffffffffffff1690602001909291905050506104ab565b005b34801561016557600080fd5b5061016e6107d8565b6040518080602001828103825283818151815260200191508051906020019080838360005b838110156101ae578082015181840152602081019050610193565b50505050905090810190601f1680156101db5780820380516001836020036101000a031916815260200191505b509250505060405180910390f35b3480156101f557600080fd5b506101fe610876565b6040518082815260200191505060405180910390f35b34801561022057600080fd5b506102da6004803603602081101561023757600080fd5b810190808035906020019064010000000081111561025457600080fd5b82018360208201111561026657600080fd5b8035906020019184600183028401116401000000008311171561028857600080fd5b91908080601f016020809104026020016040519081016040528093929190818152602001838380828437600081840152601f19601f82011690508083019250505050505050919291929050505061087f565b005b3480156102e857600080fd5b506102f1610899565b604051808273ffffffffffffffffffffffffffffffffffffffff1673ffffffffffffffffffffffffffffffffffffffff16815260200191505060405180910390f35b34801561033f57600080fd5b5061036c6004803603602081101561035657600080fd5b81019080803590602001909291905050506108bf565b604051808273ffffffffffffffffffffffffffffffffffffffff1673ffffffffffffffffffffffffffffffffffffffff16815260200191505060405180910390f35b3480156103ba57600080fd5b506103fd600480360360208110156103d157600080fd5b81019080803573ffffffffffffffffffffffffffffffffffffffff169060200190929190505050610900565b6040518082815260200191505060405180910390f35b34801561041f57600080fd5b506104626004803603602081101561043657600080fd5b81019080803573ffffffffffffffffffffffffffffffffffffffff169060200190929190505050610949565b6040518082815260200191505060405180910390f35b34801561048457600080fd5b5061048d610992565b6040518082815260200191505060405180910390f35b600033905090565b6000600260008373ffffffffffffffffffffffffffffffffffffffff1673ffffffffffffffffffffffffffffffffffffffff1681526020019081526020016000205411610543576040517f08c379a0000000000000000000000000000000000000000000000000000000008152600401808060200182810382526026815260200180610d6a6026913960400191505060405180910390fd5b600061055a6001544761099c90919063ffffffff16565b90506000610615600360008573ffffffffffffffffffffffffffffffffffffffff1673ffffffffffffffffffffffffffffffffffffffff168152602001908152602001600020546106076000546105f9600260008973ffffffffffffffffffffffffffffffffffffffff1673ffffffffffffffffffffffffffffffffffffffff1681526020019081526020016000205487610a2490919063ffffffff16565b610aaa90919063ffffffff16565b610af490919063ffffffff16565b90506000811415610671576040517f08c379a000000000000000000000000000000000000000000000000000000000815260040180806020018281038252602b815260200180610d90602b913960400191505060405180910390fd5b6106c381600360008673ffffffffffffffffffffffffffffffffffffffff1673ffffffffffffffffffffffffffffffffffffffff1681526020019081526020016000205461099c90919063ffffffff16565b600360008573ffffffffffffffffffffffffffffffffffffffff1673ffffffffffffffffffffffffffffffffffffffff1681526020019081526020016000208190555061071b8160015461099c90919063ffffffff16565b6001819055508273ffffffffffffffffffffffffffffffffffffffff166108fc829081150290604051600060405180830381858888f19350505050158015610767573d6000803e3d6000fd5b507fdf20fd1e76bc69d672e4814fafb2c449bba3a5369d8359adf9e05e6fde87b0568382604051808373ffffffffffffffffffffffffffffffffffffffff1673ffffffffffffffffffffffffffffffffffffffff1681526020018281526020019250505060405180910390a1505050565b60068054600181600116156101000203166002900480601f01602080910402602001604051908101604052809291908181526020018280546001816001161561010002031660029004801561086e5780601f106108435761010080835404028352916020019161086e565b820191906000526020600020905b81548152906001019060200180831161085157829003601f168201915b505050505081565b60008054905090565b8060069080519060200190610895929190610cc4565b5050565b600560009054906101000a900473ffffffffffffffffffffffffffffffffffffffff1681565b6000600482815481106108ce57fe5b9060005260206000200160009054906101000a900473ffffffffffffffffffffffffffffffffffffffff169050919050565b6000600360008373ffffffffffffffffffffffffffffffffffffffff1673ffffffffffffffffffffffffffffffffffffffff168152602001908152602001600020549050919050565b6000600260008373ffffffffffffffffffffffffffffffffffffffff1673ffffffffffffffffffffffffffffffffffffffff168152602001908152602001600020549050919050565b6000600154905090565b600080828401905083811015610a1a576040517f08c379a000000000000000000000000000000000000000000000000000000000815260040180806020018281038252601b8152602001807f536166654d6174683a206164646974696f6e206f766572666c6f77000000000081525060200191505060405180910390fd5b8091505092915050565b600080831415610a375760009050610aa4565b6000828402905082848281610a4857fe5b0414610a9f576040517f08c379a0000000000000000000000000000000000000000000000000000000008152600401808060200182810382526021815260200180610dbb6021913960400191505060405180910390fd5b809150505b92915050565b6000610aec83836040518060400160405280601a81526020017f536166654d6174683a206469766973696f6e206279207a65726f000000000000815250610b3e565b905092915050565b6000610b3683836040518060400160405280601e81526020017f536166654d6174683a207375627472616374696f6e206f766572666c6f770000815250610c04565b905092915050565b60008083118290610bea576040517f08c379a00000000000000000000000000000000000000000000000000000000081526004018080602001828103825283818151815260200191508051906020019080838360005b83811015610baf578082015181840152602081019050610b94565b50505050905090810190601f168015610bdc5780820380516001836020036101000a031916815260200191505b509250505060405180910390fd5b506000838581610bf657fe5b049050809150509392505050565b6000838311158290610cb1576040517f08c379a00000000000000000000000000000000000000000000000000000000081526004018080602001828103825283818151815260200191508051906020019080838360005b83811015610c76578082015181840152602081019050610c5b565b50505050905090810190601f168015610ca35780820380516001836020036101000a031916815260200191505b509250505060405180910390fd5b5060008385039050809150509392505050565b828054600181600116156101000203166002900490600052602060002090601f016020900481019282601f10610d0557805160ff1916838001178555610d33565b82800160010185558215610d33579182015b82811115610d32578251825591602001919060010190610d17565b5b509050610d409190610d44565b5090565b610d6691905b80821115610d62576000816000905550600101610d4a565b5090565b9056fe5061796d656e7453706c69747465723a206163636f756e7420686173206e6f207368617265735061796d656e7453706c69747465723a206163636f756e74206973206e6f7420647565207061796d656e74536166654d6174683a206d756c7469706c69636174696f6e206f766572666c6f77a2646970667358221220afee83790cdcd5bb4826fe56a3f8497e7d020ef3f025b7af7a58da0861aa86fd64736f6c634300060200335061796d656e7453706c69747465723a206163636f756e7420697320746865207a65726f20616464726573735061796d656e7453706c69747465723a2070617965657320616e6420736861726573206c656e677468206d69736d617463685061796d656e7453706c69747465723a206163636f756e7420616c72656164792068617320736861726573",
  "linkReferences": {},
  "deployedLinkReferences": {}
}